:10000300E4F50875A0FE20B12D7F147E0012006A6E
:1000130030B1FD7F147E0012006A0508E508C39421
:10002300084003E4F508AF087401A807088002C379
:1000330033D8FCF4F5A020B0CD7F147E0012006A03
:1000430030B0FD7F147E0012006AE5087005750864
:100053000780021508AF087401A807088002C3339C
:07006300D8FCF4F5A0809F1A
:10006A00EF4E600F7D027CEFDCFEDDFCEF1F70F0CF
:03007A001E80EDF8
:01007D002260
:0300000002007E7D
:0C007E00787FE4F6D8FD758108020003CD
:00000001FF
