:1000FD0012016F75120A20B132800320B1097F14ED
:10010D007E0012018480F40514531403E514B40326
:10011D0003E4F512E514B40203751214E514B401E9
:10012D0003751232E5147003751264E514FD7C003D
:07013D007F0112009A80BF50
:03000B00020144AB
:10014400C0E0C0F0C0D0758AA4758CFF0513E51318
:1001540075F0648485F013E513C395125004C290BE
:0B0164008002D290D0D0D0F0D0E0326A
:10016F005389F0438901758AA4758CFFC28DD28C97
:05017F00D2AFD2A9225D
:1001980053890F438920758BD0758DFFC28ED2AFDE
:0301A800C2AB22C5
:10018400EF4E600F7D027CEFDCFEDDFCEF1F70F0B4
:030194001E80EDDD
:010197002245
:0C01AB000A083F065B4F666D7D077F6F02
:10009A00EF14B4080050549000AF75F003A4C58360
:1000AA0025F0C583730200C70200CB0200CF02000D
:1000BA00D30200D70200DF0200E70200EFD2A480D9
:1000CA000ED2A48012D2A48016D2A4801AC2A4D2BC
:1000DA00A3D2A28016C2A4D2A3C2A2800EC2A4C274
:1000EA00A3D2A28006C2A4C2A3C2A274082DF8E6B3
:0300FA00F580226C
:0300000002000EED
:0C000E00787FE4F6D8FD758114020055DF
:10001A000200FDE493A3F8E493A34003F68001F2FF
:10002A0008DFF48029E493A3F85407240CC8C333E7
:10003A00C4540F4420C8834004F456800146F6DFB6
:10004A00E4800B01020408102040809001ABE47E9A
:10005A00019360BCA3FF543F30E509541FFEE493AB
:10006A00A360010ECF54C025E060A840B8E493A372
:10007A00FAE493A3F8E493A3C8C582C8CAC583CA9D
:10008A00F0A3C8C582C8CAC583CADFE9DEE780BE55
:0101B7000047
:00000001FF
