:06010200010800010900E4
:0700E200E50AF4F5A07F64BC
:0E00E900EF600B7E027DEFDDFEDEFC1F80F27D
:0100F70022E6
:03000300020006F2
:0A00060020B20675080175090032EA
:030013000200F8F0
:0A00F80020B30675090175080032F7
:1000A200750A01E50AF4F5A0120109120110E5082A
:1000B200B401131200E2E50AB40105750A80800654
:1000C200E50AC313F50AE509B401E31200E2E50A01
:1000D200B48005750A0180D6E50A25E0F50A80CECE
:07010900D2AFD288D2A82278
:07011000D2AFD28AD2AA226D
:03000000020016E5
:0C001600787FE4F6D8FD75810A02005DD9
:100022000200A2E493A3F8E493A34003F68001F252
:1000320008DFF48029E493A3F85407240CC8C333DF
:10004200C4540F4420C8834004F456800146F6DFAE
:10005200E4800B0102040810204080900102E47E3B
:10006200019360BCA3FF543F30E509541FFEE493A3
:10007200A360010ECF54C025E060A840B8E493A36A
:10008200FAE493A3F8E493A3C8C582C8CAC583CA95
:10009200F0A3C8C582C8CAC583CADFE9DEE780BE4D
:0101080000F6
:00000001FF
