:06010300010800010900E3
:0600D600ECF4F5A07F64CC
:0E00DC00EF600B7E027DEFDDFEDEFC1F80F28A
:0100EA0022F3
:0700F500D2AFD288D2A8228D
:03000300020006F2
:0A00060020B20675080175090032EA
:0700FC00D2AFD28AD2AA2282
:030013000200EBFD
:0A00EB0020B3067509017508003204
:1000A2007C01ECF4F5A01200F51200FCE508B401A5
:1000B2000E1200D6BC01047C808004ECC313FCE564
:1000C20009B401E81200D6BC80047C0180DEEC2574
:0400D200E0FC80D8F6
:03000000020016E5
:0C001600787FE4F6D8FD75810902005DDA
:100022000200A2E493A3F8E493A34003F68001F252
:1000320008DFF48029E493A3F85407240CC8C333DF
:10004200C4540F4420C8834004F456800146F6DFAE
:10005200E4800B0102040810204080900103E47E3A
:10006200019360BCA3FF543F30E509541FFEE493A3
:10007200A360010ECF54C025E060A840B8E493A36A
:10008200FAE493A3F8E493A3C8C582C8CAC583CA95
:10009200F0A3C8C582C8CAC583CADFE9DEE780BE4D
:0101090000F5
:00000001FF
