:10000E0075150812027B75120F12017F8F13E513FF
:10001E0064017058E515C3940A50020515E515B430
:10002E000903751210E515B4080375120FE515B422
:10003E00070375120EE515B4060375120DE515B41A
:10004E00050375120CE515B4040375120BE515B412
:10005E00030375120AE515B40203751209E515B40A
:10006E000103751208E515700375120720B0697F3C
:10007E00147E0012029030B0FD7F147E00120290AA
:10008E00E515D3940040021515E515B40903751254
:10009E0010E515B4080375120FE515B407037512B4
:1000AE000EE515B4060375120DE515B405037512AC
:1000BE000CE515B4040375120BE515B403037512A4
:1000CE000AE515B40203751209E515B4010375129C
:1000DE0008E5157003751207E515FD7C007F01120A
:0500EE0001ED02001706
:03000B000202509E
:10025000C0E0C0F0C0D0758AA4758CFF0514E51409
:1002600075F0C88485F014E514C395125004D2A12A
:0B0270008002C2A1D0D0D0F0D0E0325C
:10027B005389F0438901758AA4758CFFC28DD28C8A
:05028B00D2AFD2A92250
:1002A40053890F438920758BD0758DFFC28ED2AFD1
:0302B400C2AB22B8
:10029000EF4E600F7D027CC7DCFEDDFCEF1F70F0CF
:0302A0001E80EDD0
:0102A3002238
:0C02B7000A083F065B4F666D7D077F6FF5
:1001ED00EF14B40800505490020275F003A4C583B7
:1001FD0025F0C5837302021A02021E0202220202B8
:10020D002602022A02023202023A020242D2A480DD
:10021D000ED2A48012D2A48016D2A4801AC2A4D267
:10022D00A3D2A28016C2A4D2A3C2A2800EC2A4C21F
:10023D00A3D2A28006C2A4C2A3C2A274082DF8E65E
:03024D00F5802217
:10017F00E4F516E5B060157F147E00120290E5B02D
:10018F0070FC7F147E00120290751601E5B06401B9
:10019F0060177F147E00120290E5B0640170FA7F41
:1001AF00147E00120290751602E5B060157F147E62
:1001BF0000120290E5B070FC7F147E001202907561
:1001CF001603E5B060157F147E00120290E5B07043
:0D01DF00FC7F147E00120290751604AF160E
:0101EC0022F0
:030000000200F308
:0C00F300787FE4F6D8FD75811602013A12
:1000FF0002000EE493A3F8E493A34003F68001F209
:10010F0008DFF48029E493A3F85407240CC8C33301
:10011F00C4540F4420C8834004F456800146F6DFD0
:10012F00E4800B01020408102040809002B7E47EA7
:10013F00019360BCA3FF543F30E509541FFEE493C5
:10014F00A360010ECF54C025E060A840B8E493A38C
:10015F00FAE493A3F8E493A3C8C582C8CAC583CAB7
:10016F00F0A3C8C582C8CAC583CADFE9DEE780BE6F
:0102C300003A
:00000001FF
