:10000E0075140812021675120F20B1697F147E0046
:10001E0012022B30B1FD7F147E0012022BE514C3A9
:10002E00940A50020514E514B40903751210E51470
:10003E00B4080375120FE514B4070375120EE51418
:10004E00B4060375120DE514B4050375120CE51410
:10005E00B4040375120BE514B4030375120AE51408
:10006E00B40203751209E514B40103751208E51400
:10007E00700375120720B0697F147E0012022B30B8
:10008E00B0FD7F147E0012022BE514D394004002C3
:10009E001514E514B40903751210E514B4080375AC
:1000AE00120FE514B4070375120EE514B4060375AA
:1000BE00120DE514B4050375120CE514B4040375A2
:1000CE00120BE514B4030375120AE514B40203759A
:1000DE001209E514B40103751208E51470037512C4
:0E00EE0007E514FD7C007F0112018802001757
:03000B000201EB04
:1001EB00C0E0C0F0C0D0758AA4758CFF0513E51371
:1001FB0075F0C88485F013E513C395125004D2A192
:0B020B008002C2A1D0D0D0F0D0E032C1
:100216005389F0438901758AA4758CFFC28DD28CEF
:05022600D2AFD2A922B5
:10023F0053890F438920758BD0758DFFC28ED2AF36
:03024F00C2AB221D
:10022B00EF4E600F7D027CC7DCFEDDFCEF1F70F034
:03023B001E80ED35
:01023E00229D
:0C0252000A083F065B4F666D7D077F6F5A
:10018800EF14B40800505490019D75F003A4C58382
:1001980025F0C583730201B50201B90201BD020150
:1001A800C10201C50201CD0201D50201DDD2A48040
:1001B8000ED2A48012D2A48016D2A4801AC2A4D2CD
:1001C800A3D2A28016C2A4D2A3C2A2800EC2A4C285
:1001D800A3D2A28006C2A4C2A3C2A274082DF8E6C4
:0301E800F580227D
:030000000200FCFF
:0C00FC00787FE4F6D8FD75811402014302
:1001080002000EE493A3F8E493A34003F68001F2FF
:1001180008DFF48029E493A3F85407240CC8C333F8
:10012800C4540F4420C8834004F456800146F6DFC7
:10013800E4800B0102040810204080900252E47E03
:10014800019360BCA3FF543F30E509541FFEE493BC
:10015800A360010ECF54C025E060A840B8E493A383
:10016800FAE493A3F8E493A3C8C582C8CAC583CAAE
:10017800F0A3C8C582C8CAC583CADFE9DEE780BE66
:01025E00009F
:00000001FF
