:08000E0002080000020A0000D4
:080003001200F812010D80FE4D
:03000B000200AA46
:0400AA00C0E0C0D022
:1000AE00758A18758CFC0509E50970020508B4E817
:0E00BE000DE508B40308750800750900B2A02E
:0500CC00D0D0D0E032AD
:03001B000200D10F
:0400D100C0E0C0D0FB
:1000D500758B0C758DFE050BE50B7002050AB4E8F2
:0E00E5000DE50AB40308750A00750B00B2A100
:0500F300D0D0D0E03286
:1000F8005389F0438901758AA4758CFFC28DC28C1F
:05010800D2AFD2A922D4
:10010D0053890F438910758BA4758DFFC28FC28ED5
:05011D00D2AFD2A922BF
:0300000002001EDD
:0C001E00787FE4F6D8FD75810B020065C8
:10002A00020003E493A3F8E493A34003F68001F2E9
:10003A0008DFF48029E493A3F85407240CC8C333D7
:10004A00C4540F4420C8834004F456800146F6DFA6
:10005A00E4800B010204081020408090000EE47E28
:10006A00019360BCA3FF543F30E509541FFEE4939B
:10007A00A360010ECF54C025E060A840B8E493A362
:10008A00FAE493A3F8E493A3C8C582C8CAC583CA8D
:10009A00F0A3C8C582C8CAC583CADFE9DEE780BE45
:0100160000E9
:00000001FF
