:0F015900010800010901010A00010B00010C015E
:100133005389F0438901758A18758CFCC28DD2A945
:03014300C28C2249
:1001460053890F438910758B18758DFCC28FD2ABFE
:03015600C28E2234
:05000600D288D2A822FF
:05000E00D28AD2AA22F3
:10010A00D2AFE50CF4F5A012013312014612000633
:10011A0012000EE508B40106D28CC28E80F5E509FC
:09012A00B401F0C28CD28E80EA0F
:03000B000200AA46
:1000AA00C0E0C0D0050AE50AC394644018E50CF420
:1000BA00F5A0750A00E50CB40105750C808006E50B
:1000CA000CC313F50C758A18758CFCD0D0D0E032AD
:03001B000200DA06
:1000DA00C0E0C0D0050BE50BC394644018750B0053
:1000EA00E50CF4F5A0E50CB48005750C018006E575
:1000FA000C25E0F50C758B18758DFCD0D0D0E0324C
:030003000201698E
:070169007508017509003261
:0300130002017077
:07017000750901750800325A
:0300000002001EDD
:0C001E00787FE4F6D8FD75810C020065C7
:10002A0002010AE493A3F8E493A34003F68001F2E1
:10003A0008DFF48029E493A3F85407240CC8C333D7
:10004A00C4540F4420C8834004F456800146F6DFA6
:10005A00E4800B0102040810204080900159E47EDC
:10006A00019360BCA3FF543F30E509541FFEE4939B
:10007A00A360010ECF54C025E060A840B8E493A362
:10008A00FAE493A3F8E493A3C8C582C8CAC583CA8D
:10009A00F0A3C8C582C8CAC583CADFE9DEE780BE45
:010168000096
:00000001FF
