:0700C300D2AFD2A8D28822BF
:0700CA00D2AFD2AAD28A22B4
:0800BB001200C31200CA80FE0E
:0300030002006395
:10006300C0E0C0F0C083C082C0D075D000C000C063
:1000730001C002C003C004C005C006C0077F0A7EDA
:10008300001200A720B302B2A0D007D006D005D03B
:1000930004D003D002D001D000D0D0D082D083D0FE
:0400A300F0D0E03287
:03001300020016D2
:10001600C0E0C0F0C083C082C0D075D000C000C0B0
:1000260001C002C003C004C005C006C0077F0A7E27
:10003600001200A720B309C2A17FF47E011200A717
:10004600D2A1D007D006D005D004D003D002D0016B
:0D005600D000D0D0D082D083D0F0D0E032E6
:1000A700EF4E600F7D027CEFDCFEDDFCEF1F70F092
:0300B7001E80EDBB
:0100BA002223
:03000000020006F5
:0C000600787FE4F6D8FD7581070200BB8E
:00000001FF
